S0210000417474656E64616E636542696F6D657472696353797374656D2E73726563E9
S11300000C942A000C9447000C9447000C9447006D
S11300100C9447000C9447000C9447000C94470040
S11300200C9447000C9447000C9447000C94470030
S11300300C9447000C94AB090C9447000C944700B3
S11300400C9447000C9447000C9447000C94470010
S11300500C94470011241FBECFE5D8E0DEBFCDBF0E
S113006011E0A0E6B0E0ECE2F4E102C005900D92EC
S1130070A83AB107D9F721E0A8EAB1E001C01D927E
S1130080A93BB207E1F70E94F9060C94140A0C94F8
S113009000000E94D30560E080E00E94360683E9F8
S11300A090E00E94C00560E081E00E94360680EA8C
S11300B090E00E94C00560E082E00E94360681EB79
S11300C090E00E94C00581E002C00E944704833290
S11300D011F08A32D1F7833231F08A3239F487E071
S11300E08093B601089581E08093B6010895CF937B
S11300F0DF930E94D30560E080E00E94360684EC22
S113010090E00E94C00560E081E00E943606D0E0E5
S11301100E9447048134D9F08334D9F0C0EDC80F6C
S1130120CA3090F46C2F70E080E090E00E94D70514
S1130130DD0F8D2F880F880FD80FDC0FD03110F40E
S11301408C2F02C08C2FDEEF843411F703C0DFEF55
S113015001C0DFEF8D2FDF91CF910895CF93C82F8A
S113016090E00E94EE01C81302C089E001C088E05B
S1130170CF910895682F90E00E94D00182E080938F
S1130180B60108950E94D30589ED90E00E94C00550
S113019083E00E9474062FEF83E294EF21508040A5
S11301A09040E1F700C0000083E00E9493060895A8
S11301B0CF93DF93EC0160E082E00E9436068B81EE
S11301C090E0880F991F880F991F805A9F4F0E94B3
S11301D0C00580E20E94D5046C8170E080E090E06C
S11301E00E94D7058FE20E94D5046D8170E080E003
S11301F090E00E94D7058FE20E94D50464E170E08C
S113020080E090E00E94D7056E8170E080E090E08D
S11302100E94D70560E083E00E9436066A8170E0A0
S113022080E090E00E94D7058AE30E94D5046981AA
S113023070E080E090E00E94D7058AE30E94D50434
S1130240688170E080E090E00E94D7058A8189305F
S113025040F08981882329F08CEE90E00E94C0054B
S113026004C082EF90E00E94C005DF91CF91089511
S11302700F931F93CF93C82F8B010E94D305C730D0
S113028049F48BEF90E00E94C00560E081E00E9499
S1130290360615C0C63049F484E091E00E94C005DA
S11302A060E081E00E9436060AC0C53041F48FE068
S11302B091E00E94C00560E081E00E94360687E17B
S11302C091E00E94C005C8010E94BD06C8010E94B9
S11302D0D80085E20E94B20683E00E9474062FEFE4
S11302E083E294EF215080409040E1F700C0000089
S11302F085E20E94B60683E00E949306CF911F9187
S11303000F9108950E94D3058AE291E00E94C005EE
S11303100895CF93C82F84E00E9474060E94D305E9
S11303208DE391E00E94C00560E081E00E94360602
S1130330C13081F028F0C23091F0CE3F31F01BC0C3
S113034086E491E00E94C00516C087E591E00E9412
S1130350C00511C087E691E00E94C0050CC084E787
S113036091E00E94C00560E082E00E94360689E8C0
S113037091E00E94C00560E083E00E9436068AE9AD
S113038091E00E94C005C1E003C00E944704C82F49
S1130390C334D9F784E00E9493068C2FCF9108953B
S11303A01F93CF93DF93EC01162F0E944B09CE01CC
S11303B088279370880F892F881F990B9195806ADD
S11303C00E9456098C2F0E947309812F0E94730981
S11303D00E948A09DF91CF911F9108950F931F9373
S11303E0CF93DF938C010E944B09E801CC27D37093
S11303F0CC0FCD2FCC1FDD0BD1958C2F806A0E94A2
S11304005609802F0E9473090E945F098C2F816A0C
S11304100E946A090E948309C82F0E948A098C2FAE
S1130420DF91CF911F910F9108951F93CF93DF9385
S1130430182FC62FD72F8FEE0E94A00981E00E94AB
S1130440A0098FEF0E94A0098FEF0E94A0098FEFEF
S11304500E94A0098FEF0E94A009812F0E94A00989
S11304608D2F0E94A0098C2F0E94A009DF91CF91AB
S11304701F91089567E070E081E00E94150285E312
S11304800E94A00982E00E94A0098FE00E94A009B6
S113049083E00E94A00981E00E94A00980E00E94FC
S11304A0A00982E50E94A009089563E070E081E05C
S11304B00E94150281E00E94A00980E00E94A00928
S11304C085E00E94A00908958FEE0E94A00981E0B2
S11304D00E94A0098FEF0E94A0098FEF0E94A0093B
S11304E08FEF0E94A0098FEF0E94A00981E00E9473
S11304F0A00980E00E94A00984E00E94A00982E093
S11305000E94A00981E00E94A00980E00E94A00945
S113051088E00E94A00908958FEE0E94A00981E05E
S11305200E94A0098FEF0E94A0098FEF0E94A009EA
S11305308FEF0E94A0098FEF0E94A00981E00E9422
S1130540A00980E00E94A00984E00E94A00982E042
S11305500E94A00982E00E94A00980E00E94A009F4
S113056089E00E94A00908958FEE0E94A00981E00D
S11305700E94A0098FEF0E94A0098FEF0E94A0099A
S11305808FEF0E94A0098FEF0E94A00981E00E94D2
S1130590A00980E00E94A00983E00E94A00985E0F0
S11305A00E94A00980E00E94A00989E00E94A0099D
S11305B00895CF93DF93EC0166E070E081E00E9440
S11305C0150286E00E94A00981E00E94A0098D2FF7
S11305D00E94A0098C2F0E94A009CE010E96892F9B
S11305E00E94A0098C2F825F0E94A009DF91CF9105
S11305F00895CF93DF93EC018FEE0E94A00981E070
S11306000E94A0098FEF0E94A0098FEF0E94A00909
S11306108FEF0E94A0098FEF0E94A00981E00E9441
S1130620A00980E00E94A00986E00E94A00987E05A
S11306300E94A00982E00E94A0098D2F0E94A009B7
S11306408C2F0E94A009CE014096892F0E94A009F8
S11306508C2F805F0E94A009DF91CF9108958FEEC7
S11306600E94A00981E00E94A0098FEF0E94A009C6
S11306708FEF0E94A0098FEF0E94A0098FEF0E94C4
S1130680A00981E00E94A00980E00E94A00983E003
S11306900E94A00983E00E94A00980E00E94A009B2
S11306A087E00E94A00908959091A801E92FF0E045
S11306B0E755FE4F80839B3019F41092A8010895EA
S11306C09F5F9093A80108958091B4018A3021F42A
S11306D01092B40181E0089580E00895CF93DF93F0
S11306E0EC010E9455022FEF81EE94E021508040EE
S11306F09040E1F700C000000E946403882389F35E
S11307000E9464022FEF81EE94E0215080409040DB
S1130710E1F700C000000E946403882389F30E946B
S113072055022FEF81EE94E0215080409040E1F794
S113073000C000000E946403882389F30E948C0295
S11307402FEF81EE94E0215080409040E1F700C00B
S113075000000E946403882389F30E94B4022FEFEF
S113076089E698E1215080409040E1F700C0000004
S11307700E946403882309F4B4CFCE010E94D902F5
S11307802FEF81EE94E0215080409040E1F700C0CB
S113079000000E946403882381F3DF91CF910895C0
S11307A0CF93DF93EC010E9455022FEF81EE94E08A
S11307B0215080409040E1F700C000000E94640393
S11307C0882389F30E9464022FEF81EE94E0215084
S11307D080409040E1F700C000000E946403882339
S11307E089F3CE010E94F9022FEF81EE94E02150AB
S11307F080409040E1F700C000000E946403882319
S113080081F30E942F032FEF81EE94E0215080406A
S11308109040E1F700C000008091B201811102C054
S113082081E001C080E0DF91CF91089561E083E22F
S11308300E94D80761E082E20E94D80761E081E269
S11308400E94D80761E080E20E94D80761E083E259
S11308500E94610861E082E20E94610861E081E235
S11308600E94610861E080E20E94610860E08FE21A
S11308700E94D80760E08EE20E94D80760E08DE213
S11308800E94D80760E08BE20E94D80708959F92E7
S1130890AF92BF92CF92DF92EF92FF920F931F938A
S11308A0CF93DF93CDB7DEB768970FB6F894DEBF6A
S11308B00FBECDBF83E2898382E28A8381E28B8388
S11308C080E28C838FE28D838EE28E838DE28F8330
S11308D08BE2888780E1ECE7F0E0DE011996019075
S11308E00D928A95E1F7D12C9924939447C0AD2CAD
S11308F0B12CE1E0F0E0EC0FFD1FEA0DFB1DC08020
S113090060E08C2D0E94610810E031C0E12EF12CD2
S1130910E5E0F0E0EC0FFD1FEE0DFF1D0081802FE0
S11309200E94EA08811122C02FEF83EF91E0215049
S113093080409040E1F700C00000802F0E94EA0848
S1130940811114C0802F0E94EA088823D9F3F5018D
S1130950EE0FFF1FEE0FFF1F81E090E08C0F9D1F35
S1130960E80FF91FEE0DFF1D908403C01F5F1430C4
S113097068F261E08C2D0E946108D39493E09D1588
S113098008F0B5CF892D68960FB6F894DEBF0FBE78
S1130990CDBFDF91CF911F910F91FF90EF90DF902A
S11309A0CF90BF90AF909F900895CF93C82F61E0F0
S11309B08DE00E946108C4FB662760F984E10E940F
S11309C06108C5FB662760F985E10E946108C6FBE2
S11309D0662760F986E10E9461086C2F661F66270E
S11309E0661F88E10E94610861E08CE00E94610852
S11309F08FE99FE00197F1F700C0000060E08CE010
S1130A000E9461088FE99FE00197F1F700C00000A0
S1130A106C2F617084E10E946108C1FB662760F954
S1130A2085E10E946108C2FB662760F986E10E94A5
S1130A306108C3FB662760F988E10E94610861E0F0
S1130A408CE00E9461088FE99FE00197F1F700C0F4
S1130A50000060E08CE00E9461088FE19EE4019751
S1130A60F1F700C00000CF910895CF93C82F60E044
S1130A708DE00E946108C4FB662760F984E10E944E
S1130A806108C5FB662760F985E10E946108C6FB21
S1130A90662760F986E10E9461086C2F661F66274D
S1130AA0661F88E10E94610861E08CE00E94610891
S1130AB08FE99FE00197F1F700C0000060E08CE04F
S1130AC00E9461088FE99FE00197F1F700C00000E0
S1130AD06C2F617084E10E946108C1FB662760F994
S1130AE085E10E946108C2FB662760F986E10E94E5
S1130AF06108C3FB662760F988E10E94610861E030
S1130B008CE00E9461088FE99FE00197F1F700C033
S1130B10000060E08CE00E9461088FE19EE4019790
S1130B20F1F700C00000CF91089561E084E10E94D4
S1130B30D80761E085E10E94D80761E086E10E9460
S1130B40D80761E088E10E94D80761E08DE00E9447
S1130B50D80761E08CE00E94D80783E30E94350542
S1130B6082E30E94350588E20E9435058CE00E94EC
S1130B70350582E00E94350581E00E94350508951F
S1130B800F931F93CF938C01C0E003C00E94D50440
S1130B90CF5FF801EC0FF11D80818111F7CFCF9168
S1130BA01F910F91089581E00E9435050895CF9219
S1130BB0DF92EF92FF921F93CF93DF93CDB7DEB70F
S1130BC02A970FB6F894DEBF0FBECDBF6B017C0130
S1130BD0FE0131968AE0DF011D928A95E9F7FF2034
S1130BE05CF4F094E094D094C094C11CD11CE11C3A
S1130BF0F11C8DE20E94D50410E0C701B6012AE081
S1130C0030E040E050E00E94F509E1E0F0E0EC0F54
S1130C10FD1FE10FF11D17FDFA956083C22ED32E3F
S1130C20E42EF52E1F5FC114D104E104F10429F769
S1130C300DC01150E1E0F0E0EC0FFD1FE10FF11DDC
S1130C4017FDFA958081805D0E94D50411168CF3FE
S1130C502A960FB6F894DEBF0FBECDBFDF91CF91B9
S1130C601F91FF90EF90DF90CF900895CF93DF9383
S1130C7000D000D0CDB7DEB790E8998390EC9A838A
S1130C8094E99B8394ED9C83E1E0F0E0EC0FFD1F7D
S1130C90E80FF11D8081860F0E9435050F900F909B
S1130CA00F900F90DF91CF910895823071F018F476
S1130CB0813031F00895833069F0843081F00895F3
S1130CC061E080E10E94D807089561E08FE00E940E
S1130CD0D807089561E08EE00E94D807089561E086
S1130CE08BE10E94D8070895823071F018F48130A6
S1130CF031F00895833069F0843081F0089561E023
S1130D0080E10E946108089561E08FE00E9461081B
S1130D10089561E08EE00E946108089561E08BE12E
S1130D200E9461080895823071F018F4813031F026
S1130D300895833069F0843081F0089560E080E1A3
S1130D400E946108089560E08FE00E9461080895A0
S1130D5060E08EE00E946108089560E08BE10E94EB
S1130D606108089561E00E946108089560E00E94AE
S1130D70610808950E942E090895CF93DF93EC0132
S1130D800E944B0980ED0E94560980E00E9473097D
S1130D900E945F0981ED0E946A090E947C09982FD4
S1130DA092959F708F70990F292F220F220F920F07
S1130DB0890F88830E947C09982F92959F708F7069
S1130DC0990F292F220F220F920F890F89830E94D6
S1130DD08309982F92959F708F70990F292F220F56
S1130DE0220F920F890F8A830E948A09DF91CF9183
S1130DF00895CF93DF93CDB7DEB727970FB6F89456
S1130E00DEBF0FBECDBF87E0ECE8F0E0DE01119657
S1130E1001900D928A95E1F70E942E090E94900993
S1130E2084E593E00E94A609789484E00E94550624
S1130E3083E00E9455060E9416040E9495050E94B4
S1130E40BA068091B601813009F46BC018F087307E
S1130E5021F0F7CF0E944900F4CF0E947700182FA9
S1130E608F3F19F41092B601ECCF0E94AE0080932C
S1130E70B601893009F040C00E9482010E943A0202
S1130E802FEF8BE792E9215080409040E1F700C0BA
S1130E900000812F90E00E94D0038093B50181303F
S1130EA049F4BE016F5F7F4F812F0E943801109279
S1130EB0B601C7CF8111C5CF84E00E9474060E9499
S1130EC0D3058DE391E00E94C00560E081E00E94BB
S1130ED0360684E791E00E94C0052FEF8BE792E984
S1130EE0215080409040E1F700C0000084E00E945F
S1130EF093061092B601A5CF883009F0A2CF81E005
S1130F000E948901833419F41092B6019ACF81E0CA
S1130F100E948901813409F094CF87E08093B6015F
S1130F2090CF0E947700182F8F3F19F41092B601CA
S1130F3088CF0E94AE008093B601883021F51E3F11
S1130F4049F48EEF0E948901833409F07ACF10921C
S1130F50B60177CF0E9482010E943A022FEF8FE4FC
S1130F6093EC215080409040E1F700C00000812FB5
S1130F7090E00E946E03812F0E94BA000E94C2007A
S1130F801092B6015ECF893009F05BCF80E00E94F9
S1130F908901833419F41092B60153CF80E00E9482
S1130FA08901813409F04DCF81E08093B60149CFA6
S1130FB09DEC899F912D1124292F26952695269500
S1130FC0220F322F330F330F230F821B282F9695B6
S1130FD096959695662319F06130E1F10895923063
S1130FE0A9F018F4913031F008959330D9F0943089
S1130FF029F108953AB381E090E002C0880F991F67
S11310002A95E2F7809583238ABB089537B381E05C
S113101090E002C0880F991F2A95E2F780958323F8
S113102087BB089534B381E090E002C0880F991F14
S11310302A95E2F78095832384BB089531B381E038
S113104090E002C0880F991F2A95E2F780958323C8
S113105081BB08959230A1F018F4913031F00895D5
S11310609330C9F0943011F108953AB381E090E0DF
S113107002C0880F991F2A95E2F7832B8ABB089533
S113108037B381E090E002C0880F991F2A95E2F7F8
S1131090832B87BB089534B381E090E002C0880FAE
S11310A0991F2A95E2F7832B84BB089531B381E01D
S11310B090E002C0880F991F2A95E2F7832B81BB29
S11310C008959DEC899F912D1124292F269526950D
S11310D02695220F322F330F330F230F821B282F15
S11310E0969596959695662319F06130E1F10895E9
S11310F09230A9F018F4913031F008959330D9F07A
S1131100943029F108953BB381E090E002C0880F48
S1131110991F2A95E2F7809583238BBB089538B3F2
S113112081E090E002C0880F991F2A95E2F780952C
S1131130832388BB089535B381E090E002C0880F13
S1131140991F2A95E2F78095832385BB089532B3CE
S113115081E090E002C0880F991F2A95E2F78095FC
S1131160832382BB08959230A1F018F4913031F0BA
S113117008959330C9F0943011F108953BB381E0A0
S113118090E002C0880F991F2A95E2F7832B8BBB4E
S1131190089538B381E090E002C0880F991F2A9522
S11311A0E2F7832B88BB089535B381E090E002C059
S11311B0880F991F2A95E2F7832B85BB089532B3D4
S11311C081E090E002C0880F991F2A95E2F7832BF3
S11311D082BB08959DEC899F912D1124292F26957A
S11311E026952695220F322F330F330F230F821BA0
S11311F0282F892F869586958695823091F018F44C
S1131200813031F029C08330A9F08430E1F024C06A
S113121089B390E002C0959587952A95E2F781708D
S1131220089586B390E002C0959587952A95E2F7D4
S11312308170089583B390E002C0959587952A95AF
S1131240E2F78170089580B390E002C09595879588
S11312502A95E2F78170089580E0089581B18E7F28
S113126081B981B18D7F81B981B190E0880F991FD7
S113127022E030E002C0220F331F8A95E2F7032EEA
S1131280000C440B550B60E470E080E090E00E9499
S1131290D30920B9089584EA86BF06B607FEFDCFB8
S11312A081B1887F883009F080E0089583B984E8AB
S11312B086BF06B607FEFDCF81B1887F089584EA14
S11312C086BF06B607FEFDCF81B1887F803109F065
S11312D080E0089583B984E886BF06B607FEFDCF93
S11312E081B1887F089583B984E886BF06B607FE76
S11312F0FDCF81B1887F089584EC86BF06B607FED2
S1131300FDCF83B1089584E886BF06B607FEFDCFFE
S113131083B1089584E986BF06B604FCFDCF089521
S113132080B58F7780BD10BC80E189B980B580BD60
S113133088E98AB980B5806880BD86E880BD089553
S11313405D9BFECF8CB95E9BFECF08959093B80150
S11313508093B70108951F920F920FB60F92112434
S11313602F933F934F935F936F937F938F939F93A9
S1131370AF93BF93EF93FF938CB1E091B701F091DA
S1131380B8010995FF91EF91BF91AF919F918F9112
S11313907F916F915F914F913F912F910F900FBE6D
S11313A00F901F901895A1E21A2EAA1BBB1BFD01DA
S11313B00DC0AA1FBB1FEE1FFF1FA217B307E40730
S11313C0F50720F0A21BB30BE40BF50B661F771F88
S11313D0881F991F1A9469F7609570958095909568
S11313E09B01AC01BD01CF010895052E97FB1EF4AE
S11313F000940E940C0A57FD07D00E94D30907FCF1
S113140003D04EF40C940C0A5095409530952195D8
S11314103F4F4F4F5F4F089590958095709561951C
S10F14207F4F8F4F9F4F0895F894FFCF2B
S113142C5341540053554E004D4F4E0054554500F6
S113143C57454E0054485500465249003132334109
S113144C34353642373839432A302344002B0C01C7
S113145C070418506C6561736520507265737300D2
S113146C282A29203A20417474656E64616E636580
S113147C00282329203A204E657720456D706C6F27
S113148C79656500506C6561736520456E74657291
S113149C20596F757220494400454E524F4C4C4DA7
S11314AC454E54205355434345535300204C41540B
S11314BC45002077656C636F6D6500486920546145
S11314CC72656B00486920596F75737365660048C3
S11314DC69205365696600417474656E64616E635A
S11314EC6520737563636573730050757420666946
S11314FC6E67657220746F207363616E005761723E
S113150C6E696E673A00414C52454144592054412E
S113151C4B454E204944004F5554204F46205241D0
S113152C4E4745204944004944204E4F5420464FD1
S113153C554E440046494E4745525052494E54204C
S113154C4E4F54464F554E4400504C454153452044
S113155C54525920414741494E0043203A204D6191
S10B156C696E204D656E7500E7
S9030000FC
