:100000000C942A000C9447000C9447000C94470071
:100010000C9447000C9447000C9447000C94470044
:100020000C9447000C9447000C9447000C94470034
:100030000C9447000C9496090C9447000C944700CC
:100040000C9447000C9447000C9447000C94470014
:100050000C94470011241FBECFE5D8E0DEBFCDBF12
:1000600011E0A0E6B0E0E2E0F4E102C005900D92FC
:10007000AE39B107D9F721E0AEE9B1E001C01D9278
:10008000AD3AB207E1F70E94F4060C94FF090C9414
:1000900000000E94CE0560E080E00E94310683E906
:1000A00090E00E94BB0560E081E00E94310680EA9A
:1000B00090E00E94BB0560E082E00E94310681EB87
:1000C00090E00E94BB0581E002C00E94450483329B
:1000D00011F08A32D1F7833231F08A3239F487E075
:1000E0008093AA01089581E08093AA010895CF9397
:1000F000DF930E94CE0560E080E00E94310684EC30
:1001000090E00E94BB0560E081E00E943106D0E0F3
:100110000E9445048134D9F08334D9F0C0EDC80F72
:10012000CA3090F46C2F70E080E090E00E94D2051D
:10013000DD0F8D2F880F880FD80FDC0FD03110F412
:100140008C2F02C08C2FDEEF843411F703C0DFEF59
:1001500001C0DFEF8D2FDF91CF910895CF93C82F8E
:1001600090E00E94E601C81302C089E001C088E067
:10017000CF910895682F90E00E94C80182E080939B
:10018000AA0108950E94CE0589ED90E00E94BB056A
:1001900083E00E946F062FE382E49FE021508040BD
:1001A0009040E1F700C0000083E00E948E060895B1
:1001B000CF93DF93EC0160E082E00E9431068B81F7
:1001C00090E0880F991F880F991F805A9F4F0E94B7
:1001D000BB0580E20E94D0046C8170E080E090E07A
:1001E0000E94D2058FE20E94D0046D8170E080E011
:1001F00090E00E94D2058FE20E94D00464E170E09A
:1002000080E090E00E94D2056E8170E080E090E096
:100210000E94D20560E083E00E9431066A8170E0AE
:1002200080E090E00E94D2058AE30E94D0046981B8
:1002300070E080E090E00E94D2058AE30E94D00442
:10024000688170E080E090E00E94D2058A81893068
:1002500040F08981882329F083EF90E00E94BB055C
:1002600004C089EF90E00E94BB05DF91CF91089513
:100270000F931F93CF93C82F8B010E94CE05C730D9
:1002800049F482E091E00E94BB0560E081E00E94B9
:10029000310615C0C63049F48BE091E00E94BB05E1
:1002A00060E081E00E9431060AC0C53041F486E179
:1002B00091E00E94BB0560E081E00E9431068EE182
:1002C00091E00E94BB05C8010E94B806C8010E94C7
:1002D000D80085E20E94AD0683E00E946F062FE3FE
:1002E00082E49FE0215080409040E1F700C0000090
:1002F00085E20E94B10683E00E948E06CF911F9195
:100300000F9108950E94CE0581E391E00E94BB0504
:100310000895CF93C82F84E00E946F060E94CE05F7
:1003200084E491E00E94BB0560E081E00E94310618
:10033000C13081F028F0C23091F0CE3F31F013C0CF
:100340008DE491E00E94BB050EC08EE591E00E9415
:10035000BB0509C08EE691E00E94BB0504C08BE797
:1003600091E00E94BB0560E082E00E94310680E9D6
:1003700091E00E94BB05C1E003C00E944504C82F64
:10038000C334D9F784E00E948E068C2FCF91089554
:100390001F93CF93DF93EC01162F0E943B09CE01F0
:1003A00088279370880F892F881F990B9195806AF1
:1003B0000E9446098C2F0E946309812F0E946309C5
:1003C0000E947A09DF91CF911F9108950F931F9397
:1003D000CF93DF938C010E943B09E801CC27D370B7
:1003E000CC0FCD2FCC1FDD0BD1958C2F806A0E94B6
:1003F0004609802F0E9463090E944F098C2F816A51
:100400000E945A090E947309C82F0E947A098C2FF2
:10041000DF91CF911F910F9108951F93CF93DF9399
:10042000182FC62FD72F8FEE0E94900981E00E94CF
:1004300090098FEF0E9490098FEF0E9490098FEF33
:100440000E9490098FEF0E949009812F0E949009CD
:100450008D2F0E9490098C2F0E949009DF91CF91DF
:100460001F91089567E070E081E00E940D0285E32E
:100470000E94900982E00E9490098FE00E949009FA
:1004800083E00E94900981E00E94900980E00E9430
:10049000900982E50E949009089563E070E081E090
:1004A0000E940D0281E00E94900980E00E94900964
:1004B00085E00E94900908958FEE0E94900981E0E6
:1004C0000E9490098FEF0E9490098FEF0E9490097F
:1004D0008FEF0E9490098FEF0E94900981E00E94A7
:1004E000900980E00E94900984E00E94900982E0D7
:1004F0000E94900981E00E94900980E00E9490098A
:1005000088E00E94900908958FEE0E94900981E092
:100510000E9490098FEF0E9490098FEF0E9490092E
:100520008FEF0E9490098FEF0E94900981E00E9456
:10053000900980E00E94900984E00E94900982E086
:100540000E94900982E00E94900980E00E94900938
:1005500089E00E94900908958FEE0E94900981E041
:100560000E9490098FEF0E9490098FEF0E949009DE
:100570008FEF0E9490098FEF0E94900981E00E9406
:10058000900980E00E94900983E00E94900985E034
:100590000E94900980E00E94900989E00E949009E1
:1005A0000895CF93DF93EC0166E070E081E00E9454
:1005B0000D0286E00E94900981E00E9490098D2F33
:1005C0000E9490098C2F0E949009CE010E96892FCF
:1005D0000E9490098C2F825F0E949009DF91CF9139
:1005E0000895CF93DF93C82FD92F8FEE0E949009E3
:1005F00081E00E9490098FEF0E9490098FEF0E9486
:1006000090098FEF0E9490098FEF0E94900981E07E
:100610000E94900980E00E94900986E00E94900963
:1006200087E00E94900982E00E9490098D2F0E942D
:1006300090098C2F0E94900980E00E94900984E12B
:100640000E949009DF91CF9108958FEE0E9490094A
:1006500081E00E9490098FEF0E9490098FEF0E9425
:1006600090098FEF0E9490098FEF0E94900981E01E
:100670000E94900980E00E94900983E00E94900906
:1006800083E00E94900980E00E94900987E00E9428
:10069000900908958091A9018A3021F41092A9014E
:1006A00081E0089580E00895CF93DF93EC010E94EC
:1006B0004D022FEF81EE94E0215080409040E1F711
:1006C00000C000000E944A03882389F38AE290E078
:1006D0000E94D0040E945C022FEF81EE94E0215032
:1006E00080409040E1F700C000000E944A03882348
:1006F00089F38AE290E00E94D0040E944D022FEF1D
:1007000081EE94E0215080409040E1F700C000006D
:100710000E944A03882389F38AE290E00E94D00471
:100720000E9484022FEF81EE94E02150804090409F
:10073000E1F700C000000E944A03882389F38AE29F
:1007400090E00E94D0040E94AC022FEF89E698E16D
:10075000215080409040E1F700C000000E944A0311
:10076000882309F4A4CF8AE290E00E94D004CE014D
:100770000E94D1022FEF81EE94E021508040904002
:10078000E1F700C000000E944A03882381F38AE257
:1007900090E00E94D004DF91CF910895CF93DF9332
:1007A000EC010E944D022FEF81EE94E02150804039
:1007B0009040E1F700C000000E944A03882389F3BB
:1007C0000E945C022FEF81EE94E021508040904027
:1007D000E1F700C000000E944A03882389F3CE019C
:1007E0000E94F1022FEF81EE94E021508040904072
:1007F000E1F700C000000E944A03882381F30E94B1
:1008000025032FEF81EE94E0215080409040E1F7E6
:1008100000C000008091A701811102C081E001C0E9
:1008200080E0DF91CF91089561E083E20E94C807E4
:1008300061E082E20E94C80761E081E20E94C8078D
:1008400061E080E20E94C80761E083E20E945108F3
:1008500061E082E20E94510861E081E20E94510859
:1008600061E080E20E94510860E08FE20E94C807C8
:1008700060E08EE20E94C80760E08DE20E94C80737
:1008800060E08BE20E94C80708959F92AF92BF92EA
:10089000CF92DF92EF92FF920F931F93CF93DF934C
:1008A000CDB7DEB768970FB6F894DEBF0FBECDBFE9
:1008B00083E2898382E28A8381E28B8380E28C8374
:1008C0008FE28D838EE28E838DE28F838BE2888729
:1008D00080E1ECE7F0E0DE01199601900D928A9537
:1008E000E1F7D12C9924939444C0AD2CB12CE1E0D4
:1008F000F0E0EC0FFD1FEA0DFB1DC08060E08C2DC9
:100900000E94510810E02EC0E12EF12CE5E0F0E04D
:10091000EC0FFD1FEE0DFF1D0081802F0E94DA08F5
:1009200081111FC08FE097E20197F1F700C000002E
:10093000802F0E94DA08811114C0802F0E94DA08EB
:100940008823D9F3F501EE0FFF1FEE0FFF1F81E0A3
:1009500090E08C0F9D1FE80FF91FEE0DFF1D908496
:1009600003C01F5F143080F261E08C2D0E9451089B
:10097000D39493E09D1508F0B8CF892D68960FB6F3
:10098000F894DEBF0FBECDBFDF91CF911F910F91C5
:10099000FF90EF90DF90CF90BF90AF909F90089521
:1009A000CF93C82F61E08DE00E945108C4FB6627F9
:1009B00060F984E10E945108C5FB662760F985E172
:1009C0000E945108C6FB662760F986E10E94510823
:1009D0006C2F661F6627661F88E10E94510861E040
:1009E0008CE00E9451088FE99FE00197F1F700C069
:1009F000000060E08CE00E9451088FE99FE00197C1
:100A0000F1F700C000006C2F617084E10E94510872
:100A1000C1FB662760F985E10E945108C2FB662789
:100A200060F986E10E945108C3FB662760F988E1FE
:100A30000E94510861E08CE00E9451088FE99FE01C
:100A40000197F1F700C0000060E08CE00E945108BF
:100A50008FE19EE40197F1F700C00000CF91089567
:100A6000CF93C82F60E08DE00E945108C4FB662739
:100A700060F984E10E945108C5FB662760F985E1B1
:100A80000E945108C6FB662760F986E10E94510862
:100A90006C2F661F6627661F88E10E94510861E07F
:100AA0008CE00E9451088FE99FE00197F1F700C0A8
:100AB000000060E08CE00E9451088FE99FE0019700
:100AC000F1F700C000006C2F617084E10E945108B2
:100AD000C1FB662760F985E10E945108C2FB6627C9
:100AE00060F986E10E945108C3FB662760F988E13E
:100AF0000E94510861E08CE00E9451088FE99FE05C
:100B00000197F1F700C0000060E08CE00E945108FE
:100B10008FE19EE40197F1F700C00000CF910895A6
:100B200061E084E10E94C80761E085E10E94C80796
:100B300061E086E10E94C80761E088E10E94C80781
:100B400061E08DE00E94C80761E08CE00E94C80768
:100B500083E30E94300582E30E94300588E20E9410
:100B600030058CE00E94300582E00E94300581E073
:100B70000E94300508950F931F93CF938C01C0E01E
:100B800003C00E94D004CF5FF801EC0FF11D8081FB
:100B90008111F7CFCF911F910F91089581E00E94AD
:100BA00030050895CF92DF92EF92FF921F93CF937B
:100BB000DF93CDB7DEB72A970FB6F894DEBF0FBE2E
:100BC000CDBF6B017C01FE0131968AE0DF011D92F1
:100BD0008A95E9F7FF205CF4F094E094D094C094F7
:100BE000C11CD11CE11CF11C8DE20E94D00410E05C
:100BF000C701B6012AE030E040E050E00E94E00981
:100C0000E1E0F0E0EC0FFD1FE10FF11D17FDFA959B
:100C10006083C22ED32EE42EF52E1F5FC114D104A3
:100C2000E104F10429F70DC01150E1E0F0E0EC0F10
:100C3000FD1FE10FF11D17FDFA958081805D0E9477
:100C4000D00411168CF32A960FB6F894DEBF0FBEAF
:100C5000CDBFDF91CF911F91FF90EF90DF90CF90AC
:100C60000895CF93DF9300D000D0CDB7DEB790E8E2
:100C7000998390EC9A8394E99B8394ED9C83E1E0C3
:100C8000F0E0EC0FFD1FE80FF11D8081860F0E9440
:100C900030050F900F900F900F90DF91CF91089536
:100CA000823071F018F4813031F00895833069F0AA
:100CB000843081F0089561E080E10E94C8070895C2
:100CC00061E08FE00E94C807089561E08EE00E9415
:100CD000C807089561E08BE10E94C807089582303B
:100CE00071F018F4813031F00895833069F0843068
:100CF00081F0089561E080E10E945108089561E06B
:100D00008FE00E945108089561E08EE00E94510832
:100D1000089561E08BE10E9451080895823071F0DE
:100D200018F4813031F00895833069F0843081F017
:100D3000089560E080E10E945108089560E08FE02E
:100D40000E945108089560E08EE00E9451080895C5
:100D500060E08BE10E945108089561E00E94510813
:100D6000089560E00E94510808950E941E090895A8
:100D7000CF93DF93EC010E943B0980ED0E9446096E
:100D800080E00E9463090E944F0981ED0E945A0988
:100D90000E946C09982F92959F708F70990F292F40
:100DA000220F220F920F890F88830E946C09982FBF
:100DB00092959F708F70990F292F220F220F920FFB
:100DC000890F89830E947309982F92959F708F7065
:100DD000990F292F220F220F920F890F8A830E94C9
:100DE0007A09DF91CF910895CF93DF93CDB7DEB726
:100DF00027970FB6F894DEBF0FBECDBF87E0ECE8B3
:100E0000F0E0DE01119601900D928A95E1F70E94C3
:100E10001E090E94800984E00E94500683E00E941F
:100E200050060E9414040E9490050E94B50680910D
:100E3000AA01811102C00E9449008091AA0181305B
:100E400009F45FC0873099F70E947700182F8F3F11
:100E500019F41092AA01EBCF0E94AE008093AA0170
:100E60008930D1F50E9482012FEF8BE792E9215062
:100E700080409040E1F700C000000E94320200E094
:100E8000E12EF12CC7010E94CE03813051F4BE0146
:100E90006F5F7F4F812F0E9438011092AA0100E0FE
:100EA00018C0C7010E94CE03811113C00F5F033029
:100EB00081F482E00E948901833419F41092AA011E
:100EC00008C082E00E948901813419F487E0809390
:100ED000AA010330A8F2ABCF883009F0A8CF81E097
:100EE0000E948901833419F41092AA01A0CF81E0F5
:100EF0000E948901813409F09ACF87E08093AA018A
:100F000096CF0E947700182F8F3F19F41092AA01F4
:100F10008ECF0E94AE008093AA01883021F51E3F3B
:100F200049F48EEF0E948901833409F080CF10923A
:100F3000AA017DCF0E9482012FEF8FE493EC215014
:100F400080409040E1F700C000000E943202812FF3
:100F500090E00E945403812F0E94BA000E94C200B8
:100F60001092AA0164CF893009F061CF80E00E941D
:100F70008901833419F41092AA0159CF80E00E94AC
:100F80008901813409F053CF81E08093AA014FCFCA
:100F90009DEC899F912D1124292F26952695269524
:100FA000220F322F330F330F230F821B282F9695DA
:100FB00096959695662319F06130E1F10895923087
:100FC000A9F018F4913031F008959330D9F09430AD
:100FD00029F108953AB381E090E002C0880F991F8B
:100FE0002A95E2F7809583238ABB089537B381E081
:100FF00090E002C0880F991F2A95E2F7809583231D
:1010000087BB089534B381E090E002C0880F991F38
:101010002A95E2F78095832384BB089531B381E05C
:1010200090E002C0880F991F2A95E2F780958323EC
:1010300081BB08959230A1F018F4913031F00895F9
:101040009330C9F0943011F108953AB381E090E003
:1010500002C0880F991F2A95E2F7832B8ABB089557
:1010600037B381E090E002C0880F991F2A95E2F71C
:10107000832B87BB089534B381E090E002C0880FD2
:10108000991F2A95E2F7832B84BB089531B381E041
:1010900090E002C0880F991F2A95E2F7832B81BB4D
:1010A00008959DEC899F912D1124292F2695269531
:1010B0002695220F322F330F330F230F821B282F39
:1010C000969596959695662319F06130E1F108950D
:1010D0009230A9F018F4913031F008959330D9F09E
:1010E000943029F108953BB381E090E002C0880F6D
:1010F000991F2A95E2F7809583238BBB089538B317
:1011000081E090E002C0880F991F2A95E2F7809550
:10111000832388BB089535B381E090E002C0880F37
:10112000991F2A95E2F78095832385BB089532B3F2
:1011300081E090E002C0880F991F2A95E2F7809520
:10114000832382BB08959230A1F018F4913031F0DE
:1011500008959330C9F0943011F108953BB381E0C4
:1011600090E002C0880F991F2A95E2F7832B8BBB72
:10117000089538B381E090E002C0880F991F2A9546
:10118000E2F7832B88BB089535B381E090E002C07D
:10119000880F991F2A95E2F7832B85BB089532B3F8
:1011A00081E090E002C0880F991F2A95E2F7832B17
:1011B00082BB08959DEC899F912D1124292F26959E
:1011C00026952695220F322F330F330F230F821BC4
:1011D000282F892F869586958695823091F018F470
:1011E000813031F029C08330A9F08430E1F024C08F
:1011F00089B390E002C0959587952A95E2F78170B2
:10120000089586B390E002C0959587952A95E2F7F8
:101210008170089583B390E002C0959587952A95D3
:10122000E2F78170089580B390E002C095958795AC
:101230002A95E2F78170089580E0089581B18E7F4C
:1012400081B981B18D7F81B981B190E0880F991FFB
:1012500022E030E002C0220F331F8A95E2F7032E0E
:10126000000C440B550B60E470E080E090E00E94BD
:10127000BE0920B9089584EA86BF06B607FEFDCFF1
:1012800081B1887F883009F080E0089583B984E8CF
:1012900086BF06B607FEFDCF81B1887F089584EA38
:1012A00086BF06B607FEFDCF81B1887F803109F089
:1012B00080E0089583B984E886BF06B607FEFDCFB7
:1012C00081B1887F089583B984E886BF06B607FE9A
:1012D000FDCF81B1887F089584EC86BF06B607FEF6
:1012E000FDCF83B1089584E886BF06B607FEFDCF23
:1012F00083B1089584E986BF06B604FCFDCF089546
:1013000080B58F7780BD10BC80E189B980B580BD84
:1013100088E98AB980B5806880BD86E880BD089577
:101320005D9BFECF8CB95E9BFECF08951F920F92FE
:101330000FB60F9211242F933F934F935F936F93A8
:101340007F938F939F93AF93BF93EF93FF938CB152
:10135000E091AB01F091AC010995FF91EF91BF9144
:10136000AF919F918F917F916F915F914F913F913D
:101370002F910F900FBE0F901F901895A1E21A2E7B
:10138000AA1BBB1BFD010DC0AA1FBB1FEE1FFF1F29
:10139000A217B307E407F50720F0A21BB30BE40B79
:1013A000F50B661F771F881F991F1A9469F76095C0
:1013B0007095809590959B01AC01BD01CF0108957A
:1013C000052E97FB1EF400940E94F70957FD07D0E5
:1013D0000E94BE0907FC03D04EF40C94F709509507
:1013E0004095309521953F4F4F4F5F4F0895909511
:1013F0008095709561957F4F8F4F9F4F0895F8941A
:02140000FFCF1C
:101402005341540053554E004D4F4E005455450024
:1014120057454E0054485500465249003132334137
:1014220034353642373839432A30234423150206ED
:101432001C0318506C6561736520507265737300EC
:10144200282A29203A20417474656E64616E6365AE
:1014520000282329203A204E657720456D706C6F55
:1014620079656500506C6561736520456E746572BF
:1014720020596F7572204944004E657720456E727F
:101482006F6C6C6D656E74207375636365737366E0
:10149200756C00204C415445002077656C636F6D7C
:1014A2006500486920546172656B00486920596F74
:1014B20075737365660048692053656966004174F7
:1014C20074656E64616E63652073756363657373BF
:1014D200005075742066696E67657220746F2073A0
:1014E20063616E005761726E696E673A00414C52D9
:1014F200454144592054414B454E204944004F55E3
:1015020054204F462052414E474520494400494409
:10151200204E4F5420464F554E440046494E4745B3
:10152200525052494E54204E4F54464F554E44004D
:0E15320043203A204D61696E204D656E7500B4
:00000001FF
