S0210000417474656E64616E636542696F6D657472696353797374656D2E73726563E9
S11300000C942A000C9447000C9447000C9447006D
S11300100C9447000C9447000C9447000C94470040
S11300200C9447000C9447000C9447000C94470030
S11300300C9447000C947F090C9447000C944700DF
S11300400C9447000C9447000C9447000C94470010
S11300500C94470011241FBECFE5D8E0DEBFCDBF0E
S113006011E0A0E6B0E0E4EDF3E102C005900D92EA
S1130070A83AB107D9F721E0A8EAB1E001C01D927E
S1130080A73BB207E1F70E94D3060C94E8090C944D
S113009000000E94AD0560E080E00E94100683E944
S11300A090E00E949A0560E081E00E94100680EAD8
S11300B090E00E949A0560E082E00E94100681EBC5
S11300C090E00E949A0581E002C00E9424048130DD
S11300D0E1F3833231F08A3239F487E08093B4015A
S11300E0089581E08093B4010895CF93DF930E9433
S11300F0AD0560E080E00E94100684EC90E00E9470
S11301009A0560E081E00E941006D0E00E94240479
S11301108134A1F0C0EDC80FCA3068F46C2F70E0D0
S113012080E090E00E94B105DD0F8D2F880F880FCD
S1130130D80FDC0F8C2F843449F701C0DFEF8FEF29
S11301408D0F8F3008F0DEEF8D2FDF91CF91089562
S1130150CF93C82F90E00E94DD01C81302C089E04C
S113016001C088E0CF910895682F90E00E94BF01FC
S113017082E08093B40108950E94AD0589ED90E07A
S11301800E949A0583E00E944E062FE382E49FE0DA
S1130190215080409040E1F700C0000083E00E94BD
S11301A06D060895CF93DF93EC0160E082E00E9436
S11301B010068B8190E0880F991F880F991F805A31
S11301C09F4F0E949A0580E20E94AF046C8170E008
S11301D080E090E00E94B1058FE20E94AF046D813F
S11301E070E080E090E00E94B1058FE20E94AF04CD
S11301F064E170E080E090E00E94B1056E8170E0FF
S113020080E090E00E94B10560E083E00E94100667
S11302106A8170E080E090E00E94B1058AE30E9468
S1130220AF04698170E080E090E00E94B1058AE348
S11302300E94AF04688170E080E090E00E94B10504
S11302408A81893040F08981882329F083EF90E006
S11302500E949A0504C089EF90E00E949A05DF91FC
S1130260CF9108950F931F93CF93C82F8B010E94B2
S1130270AD05C73049F482E091E00E949A0560E040
S113028081E00E94100615C0C63049F48BE091E06D
S11302900E949A0560E081E00E9410060AC0C53001
S11302A041F486E191E00E949A0560E081E00E94B9
S11302B010068EE191E00E949A05C8010E949706FB
S11302C0C8010E94D20085E20E948C0683E00E944D
S11302D04E062FE382E49FE0215080409040E1F7F6
S11302E000C0000085E20E94900683E00E946D0633
S11302F0CF911F910F9108950E94AD0581E391E084
S11303000E949A050895C82F84E00E944E060E9418
S1130310AD0584E491E00E949A0560E081E00E94CA
S11303201006C13081F028F0C23091F0CE3F31F098
S113033013C08DE491E00E949A050EC08EE591E011
S11303400E949A0509C08EE691E00E949A0504C0B5
S11303508BE791E00E949A0560E082E00E9410061B
S113036080E991E00E949A0560E083E00E94100613
S11303708EE991E00E949A050E942404FDCF1F9308
S1130380CF93DF93EC01162F0E942409CE01882716
S11303909370880F892F881F990B9195806A0E940A
S11303A02F098C2F0E944C09812F0E944C090E9416
S11303B06309DF91CF911F9108950F931F93CF93FA
S11303C0DF938C010E942409E801CC27D370CC0F61
S11303D0CD2FCC1FDD0BD1958C2F806A0E942F0965
S11303E0802F0E944C090E9438098C2F816A0E9438
S11303F043090E945C09C82F0E9463098C2FDF9176
S1130400CF911F910F9108951F93CF93DF93182FCE
S1130410C62FD72F8FEE0E94790981E00E947909B7
S11304208FEF0E9479098FEF0E9479098FEF0E9464
S113043079098FEF0E947909812F0E9479098D2F04
S11304400E9479098C2F0E947909DF91CF911F9125
S1130450089567E070E081E00E94040285E30E9451
S1130460790982E00E9479098FE00E94790983E08A
S11304700E94790981E00E94790980E00E9479094B
S113048082E50E947909089563E070E081E00E94AA
S1130490040281E00E94790980E00E94790985E0E4
S11304A00E94790908958FEE0E94790981E00E94E3
S11304B079098FEF0E9479098FEF0E9479098FEFF4
S11304C00E9479098FEF0E94790981E00E947909DD
S11304D080E00E94790984E00E94790982E00E9408
S11304E0790981E00E94790980E00E94790988E015
S11304F00E94790908958FEE0E94790981E00E9493
S113050079098FEF0E9479098FEF0E9479098FEFA3
S11305100E9479098FEF0E94790981E00E9479098C
S113052080E00E94790984E00E94790982E00E94B7
S1130530790982E00E94790980E00E94790989E0C2
S11305400E94790908958FEE0E94790981E00E9442
S113055079098FEF0E9479098FEF0E9479098FEF53
S11305600E9479098FEF0E94790981E00E9479093C
S113057080E00E94790983E00E94790985E00E9465
S1130580790980E00E94790989E00E947909089537
S1130590CF93DF93EC0166E070E081E00E940402F7
S11305A086E00E94790981E00E9479098D2F0E94DA
S11305B079098C2F0E947909CE010E96892F0E9409
S11305C079098C2F825F0E947909DF91CF91089578
S11305D0CF93DF93C82FD92F8FEE0E94790981E042
S11305E00E9479098FEF0E9479098FEF0E9479099F
S11305F08FEF0E9479098FEF0E94790981E00E94B0
S1130600790980E00E94790986E00E94790987E0EF
S11306100E94790982E00E9479098D2F0E9479094C
S11306208C2F0E94790980E00E94790984E10E945C
S11306307909DF91CF9108958FEE0E94790981E0C5
S11306400E9479098FEF0E9479098FEF0E9479093E
S11306508FEF0E9479098FEF0E94790981E00E944F
S1130660790980E00E94790983E00E94790983E096
S11306700E94790980E00E94790987E00E94790943
S113068008958091B3018A3021F41092B30181E07E
S1130690089580E00895CF93DF93EC010E94440213
S11306A02FEF81EE94E0215080409040E1F700C0AC
S11306B000000E944103882389F30E9453022FEF14
S11306C081EE94E0215080409040E1F700C00000AA
S11306D00E944103882389F30E9444022FEF81EE94
S11306E094E0215080409040E1F700C000000E9457
S11306F04103882389F30E947B022FEF81EE94E06B
S1130700215080409040E1F700C000000E94410366
S1130710882389F30E94A3022FEF89E698E12150F0
S113072080409040E1F700C000000E94410388230C
S113073009F4B4CFCE010E94C8022FEF81EE94E0F9
S1130740215080409040E1F700C000000E94410326
S1130750882381F3DF91CF910895CF93DF93EC0148
S11307600E9444022FEF81EE94E02150804090409B
S1130770E1F700C000000E944103882389F30E942E
S113078053022FEF81EE94E0215080409040E1F736
S113079000C000000E944103882389F3CE010E9417
S11307A0E8022FEF81EE94E0215080409040E1F781
S11307B000C000000E944103882381F30E941C03AF
S11307C02FEF81EE94E0215080409040E1F700C08B
S11307D000008091B101811102C081E001C080E07C
S11307E0DF91CF91089561E083E20E94B10761E057
S11307F082E20E94B10761E081E20E94B10761E0F8
S113080080E20E94B10761E083E20E943A0861E05D
S113081082E20E943A0861E081E20E943A0861E0C3
S113082080E20E943A0860E08FE20E94B10760E033
S11308308EE20E94B10760E08DE20E94B10760E0A1
S11308408BE20E94B10708959F92AF92BF92CF921C
S1130850DF92EF92FF920F931F93CF93DF93CDB765
S1130860DEB768970FB6F894DEBF0FBECDBF83E244
S1130870898382E28A8381E28B8380E28C838FE2A4
S11308808D838EE28E838DE28F838BE2888780E175
S1130890ECE7F0E0DE01199601900D928A95E1F7FC
S11308A0D12C9924939444C0AD2CB12CE1E0F0E018
S11308B0EC0FFD1FEA0DFB1DC08060E08C2D0E9433
S11308C03A0810E02EC0E12EF12CE5E0F0E0EC0F48
S11308D0FD1FEE0DFF1D0081802F0E94C3088111B2
S11308E01FC08FE097E20197F1F700C00000802F4E
S11308F00E94C308811114C0802F0E94C30888235A
S1130900D9F3F501EE0FFF1FEE0FFF1F81E090E01A
S11309108C0F9D1FE80FF91FEE0DFF1D908403C07F
S11309201F5F143080F261E08C2D0E943A08D3944A
S113093093E09D1508F0B8CF892D68960FB6F8940A
S1130940DEBF0FBECDBFDF91CF911F910F91FF90FE
S1130950EF90DF90CF90BF90AF909F900895CF938A
S1130960C82F61E08DE00E943A08C4FB662760F955
S113097084E10E943A08C5FB662760F985E10E947C
S11309803A08C6FB662760F986E10E943A086C2F94
S1130990661F6627661F88E10E943A0861E08CE0C2
S11309A00E943A088FE99FE00197F1F700C0000028
S11309B060E08CE00E943A088FE99FE00197F1F72C
S11309C000C000006C2F617084E10E943A08C1FBF2
S11309D0662760F985E10E943A08C2FB662760F940
S11309E086E10E943A08C3FB662760F988E10E9409
S11309F03A0861E08CE00E943A088FE99FE0019791
S1130A00F1F700C0000060E08CE00E943A088FE13A
S1130A109EE40197F1F700C00000CF910895CF93B1
S1130A20C82F60E08DE00E943A08C4FB662760F995
S1130A3084E10E943A08C5FB662760F985E10E94BB
S1130A403A08C6FB662760F986E10E943A086C2FD3
S1130A50661F6627661F88E10E943A0861E08CE001
S1130A600E943A088FE99FE00197F1F700C0000067
S1130A7060E08CE00E943A088FE99FE00197F1F76B
S1130A8000C000006C2F617084E10E943A08C1FB31
S1130A90662760F985E10E943A08C2FB662760F97F
S1130AA086E10E943A08C3FB662760F988E10E9448
S1130AB03A0861E08CE00E943A088FE99FE00197D0
S1130AC0F1F700C0000060E08CE00E943A088FE17A
S1130AD09EE40197F1F700C00000CF91089561E012
S1130AE084E10E94B10761E085E10E94B10761E001
S1130AF086E10E94B10761E088E10E94B10761E0EC
S1130B008DE00E94B10761E08CE00E94B10783E3AD
S1130B100E940F0582E30E940F0588E20E940F05E0
S1130B208CE00E940F0582E00E940F0581E00E9484
S1130B300F0508950F931F93CF938C01C0E003C05A
S1130B400E94AF04CF5FF801EC0FF11D8081811189
S1130B50F7CFCF911F910F91089581E00E940F0567
S1130B600895CF92DF92EF92FF921F93CF93DF937A
S1130B70CDB7DEB72A970FB6F894DEBF0FBECDBF50
S1130B806B017C01FE0131968AE0DF011D928A959A
S1130B90E9F7FF205CF4F094E094D094C094C11C75
S1130BA0D11CE11CF11C8DE20E94AF0410E0C701CE
S1130BB0B6012AE030E040E050E00E94C909E1E0DB
S1130BC0F0E0EC0FFD1FE10FF11D17FDFA956083B6
S1130BD0C22ED32EE42EF52E1F5FC114D104E104DE
S1130BE0F10429F70DC01150E1E0F0E0EC0FFD1F16
S1130BF0E10FF11D17FDFA958081805D0E94AF041D
S1130C0011168CF32A960FB6F894DEBF0FBECDBF33
S1130C10DF91CF911F91FF90EF90DF90CF900895D7
S1130C20CF93DF9300D000D0CDB7DEB790E899839F
S1130C3090EC9A8394E99B8394ED9C83E1E0F0E04B
S1130C40EC0FFD1FE80FF11D8081860F0E940F0538
S1130C500F900F900F900F90DF91CF9108958230F5
S1130C6071F018F4813031F00895833069F08430E4
S1130C7081F0089561E080E10E94B107089561E088
S1130C808FE00E94B107089561E08EE00E94B107F1
S1130C90089561E08BE10E94B1070895823071F0FC
S1130CA018F4813031F00895833069F0843081F094
S1130CB0089561E080E10E943A08089561E08FE0C0
S1130CC00E943A08089561E08EE00E943A0808956F
S1130CD061E08BE10E943A080895823071F018F4C3
S1130CE0813031F00895833069F0843081F00895C3
S1130CF060E080E10E943A08089560E08FE00E947D
S1130D003A08089560E08EE00E943A08089560E091
S1130D108BE10E943A08089561E00E943A08089520
S1130D2060E00E943A0808950E9407090895CF934D
S1130D30DF93EC010E94240980ED0E942F0980E0DA
S1130D400E944C090E94380981ED0E9443090E94C7
S1130D505509982F92959F708F70990F292F220F04
S1130D60220F920F890F88830E945509982F92951C
S1130D709F708F70990F292F220F220F920F890FC6
S1130D8089830E945C09982F92959F708F70990FA8
S1130D90292F220F220F920F890F8A830E94630941
S1130DA0DF91CF910895CF93DF93CDB7DEB7279727
S1130DB00FB6F894DEBF0FBECDBF87E0ECE8F0E0DD
S1130DC0DE01119601900D928A95E1F70E940709C0
S1130DD00E94690984E00E942F0683E00E942F0686
S1130DE00E94F3030E946F050E9494068091B4014F
S1130DF0811102C00E9449008091B401813009F43C
S1130E005FC0873099F70E947500182F8F3F19F43F
S1130E101092B401EBCF0E94A8008093B4018930F2
S1130E20D1F50E947C010E9429022FEF34E38CE06B
S1130E30215030408040E1F700C0000000E0E12E86
S1130E40F12CC7010E94AD03813051F4BE016F5FE4
S1130E507F4F812F0E9432011092B40100E018C02C
S1130E60C7010E94AD03811113C00F5F033081F4E9
S1130E7082E00E948301833419F41092B40108C003
S1130E8082E00E948301813419F487E08093B401E5
S1130E900330A8F2ABCF883009F0A8CF81E00E94DC
S1130EA08301833419F41092B401A0CF81E00E942D
S1130EB08301813409F09ACF87E08093B40196CFFF
S1130EC00E947500182F8F3F19F41092B4018ECF31
S1130ED00E94A8008093B401883071F51E3F91F4FC
S1130EE08EEF0E948301833419F41092B4017ECFF3
S1130EF08EEF0E948301813409F078CF81E08093E2
S1130F00B40174CF0E947C019AE220E53EEF80E0B8
S1130F109150204030408040D9F700000E942902BF
S1130F20812F90E00E944B03812F0E94B4000E9405
S1130F30BC001092B4015ACF893009F057CF80E039
S1130F400E948301833419F41092B4014FCF80E0DE
S1130F500E948301813409F049CF81E08093B40178
S1130F6045CF9DEC899F912D1124292F26952695F7
S1130F702695220F322F330F330F230F821B282F76
S1130F80969596959695662319F06130E1F108954A
S1130F909230A9F018F4913031F008959330D9F0DB
S1130FA0943029F108953AB381E090E002C0880FAB
S1130FB0991F2A95E2F7809583238ABB089537B356
S1130FC081E090E002C0880F991F2A95E2F780958E
S1130FD0832387BB089534B381E090E002C0880F77
S1130FE0991F2A95E2F78095832384BB089531B332
S1130FF081E090E002C0880F991F2A95E2F780955E
S1131000832381BB08959230A1F018F4913031F01C
S113101008959330C9F0943011F108953AB381E002
S113102090E002C0880F991F2A95E2F7832B8ABBB0
S1131030089537B381E090E002C0880F991F2A9584
S1131040E2F7832B87BB089534B381E090E002C0BC
S1131050880F991F2A95E2F7832B84BB089531B337
S113106081E090E002C0880F991F2A95E2F7832B54
S113107081BB08959DEC899F912D1124292F2695DC
S113108026952695220F322F330F330F230F821B01
S1131090282F969596959695662319F06130E1F17F
S11310A008959230A9F018F4913031F008959330F6
S11310B0D9F0943029F108953BB381E090E002C067
S11310C0880F991F2A95E2F7809583238BBB089597
S11310D038B381E090E002C0880F991F2A95E2F7A7
S11310E08095832388BB089535B381E090E002C0E6
S11310F0880F991F2A95E2F78095832385BB08956D
S113110032B381E090E002C0880F991F2A95E2F77C
S11311108095832382BB08959230A1F018F4913016
S113112031F008959330C9F0943011F108953BB330
S113113081E090E002C0880F991F2A95E2F7832B83
S11311408BBB089538B381E090E002C0880F991FEB
S11311502A95E2F7832B88BB089535B381E090E0AC
S113116002C0880F991F2A95E2F7832B85BB089547
S113117032B381E090E002C0880F991F2A95E2F70C
S1131180832B82BB08959DEC899F912D1124292FD7
S1131190269526952695220F322F330F330F230FD2
S11311A0821B282F892F869586958695823091F00B
S11311B018F4813031F029C08330A9F08430E1F093
S11311C024C089B390E002C0959587952A95E2F7EB
S11311D08170089586B390E002C0959587952A950D
S11311E0E2F78170089583B390E002C095958795E6
S11311F02A95E2F78170089580B390E002C0959536
S113120087952A95E2F78170089580E0089581B169
S11312108E7F81B981B18D7F81B981B190E0880FD2
S1131220991F22E030E002C0220F331F8A95E2F7B3
S1131230032E000C440B550B60E470E080E090E05A
S11312400E94A70920B9089584EA86BF06B607FE5E
S1131250FDCF81B1887F883009F080E0089583B99B
S113126084E886BF06B607FEFDCF81B1887F089566
S113127084EA86BF06B607FEFDCF81B1887F803140
S113128009F080E0089583B984E886BF06B607FEB6
S1131290FDCF81B1887F089583B984E886BF06B6FF
S11312A007FEFDCF81B1887F089584EC86BF06B622
S11312B007FEFDCF83B1089584E886BF06B607FE16
S11312C0FDCF83B1089584E986BF06B604FCFDCF43
S11312D0089580B58F7780BD10BC80E189B980B551
S11312E080BD88E98AB980B5806880BD86E880BD04
S11312F008955D9BFECF8CB95E9BFECF08951F922F
S11313000F920FB60F9211242F933F934F935F9335
S11313106F937F938F939F93AF93BF93EF93FF93B9
S11313208CB1E091B501F091B6010995FF91EF916F
S1131330BF91AF919F918F917F916F915F914F91E9
S11313403F912F910F900FBE0F901F901895A1E21F
S11313501A2EAA1BBB1BFD010DC0AA1FBB1FEE1F2B
S1131360FF1FA217B307E407F50720F0A21BB30B76
S1131370E40BF50B661F771F881F991F1A9469F7F2
S113138060957095809590959B01AC01BD01CF014E
S11313900895052E97FB1EF400940E94E00957FD62
S11313A007D00E94A70907FC03D04EF40C94E0096F
S11313B050954095309521953F4F4F4F5F4F08957D
S11313C090958095709561957F4F8F4F9F4F0895AD
S10713D0F894FFCFBB
S11313D45341540053554E004D4F4E00545545004F
S11313E457454E0054485500465249003132334162
S11313F434353642373839432A3023442315020618
S11314041C0318506C656173652050726573730016
S1131414282A29203A20417474656E64616E6365D8
S113142400282329203A204E657720456D706C6F7F
S113143479656500506C6561736520456E746572E9
S113144420596F7572204944004E657720456E72A9
S11314546F6C6C6D656E742073756363657373660A
S1131464756C00204C415445002077656C636F6DA6
S11314746500486920546172656B00486920596F9E
S11314847573736566004869205365696600417421
S113149474656E64616E63652073756363657373E9
S11314A4005075742066696E67657220746F2073CA
S11314B463616E005761726E696E673A00414C5203
S11314C4454144592054414B454E204944004F550D
S11314D454204F462052414E474520494400494434
S11314E4204E4F5420464F554E440046494E4745DE
S11314F4525052494E54204E4F54464F554E440078
S113150443203A204D61696E204D656E750041207B
S10B15143A204261636B000000
S9030000FC
