S0210000417474656E64616E636542696F6D657472696353797374656D2E73726563E9
S11300000C942A000C9447000C9447000C9447006D
S11300100C9447000C9447000C9447000C94470040
S11300200C9447000C9447000C9447000C94470030
S11300300C9447000C94D9090C9447000C94470085
S11300400C9447000C9447000C9447000C94470010
S11300500C94470011241FBECFE5D8E0DEBFCDBF0E
S113006011E0A0E6B0E0E8E8F4E102C005900D92EA
S1130070A83AB107D9F721E0A8EAB1E001C01D927E
S1130080A93BB207E1F70E9406070C94420A0C94BC
S113009000000E94E00560E080E00E94430683E9DE
S11300A090E00E94CD0560E081E00E94430680EA72
S11300B090E00E94CD0560E082E00E94430681EB5F
S11300C090E00E94CD0581E002C00E945404833276
S11300D011F08A32D1F7833231F08A3239F487E071
S11300E08093B601089581E08093B6010895CF937B
S11300F0DF930E94E00560E080E00E94430684EC08
S113010090E00E94CD0560E081E00E944306D0E0CB
S11301100E9454048134D9F08334D9F0C0EDC80F5F
S1130120CA3090F46C2F70E080E090E00E94E40507
S1130130DD0F8D2F880F880FD80FDC0FD03110F40E
S11301408C2F02C08C2FDEEF843411F703C0DFEF55
S113015001C0DFEF8D2FDF91CF910895CF93C82F8A
S113016090E00E94EE01C81302C089E001C088E05B
S1130170CF910895682F90E00E94D00182E080938F
S1130180B60108950E94E00589ED90E00E94CD0536
S113019083E00E9481062FEF83E294EF2150804098
S11301A09040E1F700C0000083E00E94A00608959B
S11301B0CF93DF93EC0160E082E00E9443068B81E1
S11301C090E0880F991F880F991F805A9F4F0E94B3
S11301D0CD0580E20E94E2046C8170E080E090E052
S11301E00E94E4058FE20E94E2046D8170E080E0E9
S11301F090E00E94E4058FE20E94E20464E170E072
S113020080E090E00E94E4056E8170E080E090E080
S11302100E94E40560E083E00E9443066A8170E086
S113022080E090E00E94E4058AE30E94E204698190
S113023070E080E090E00E94E4058AE30E94E2041A
S1130240688170E080E090E00E94E4058A81893052
S113025040F08981882329F08CEE90E00E94CD053E
S113026004C082EF90E00E94CD05DF91CF91089504
S11302700F931F93CF93C82F8B010E94E005C730C3
S113028049F48BEF90E00E94CD0560E081E00E948C
S1130290430615C0C63049F484E091E00E94CD05C0
S11302A060E081E00E9443060AC0C53041F48FE05B
S11302B091E00E94CD0560E081E00E94430687E161
S11302C091E00E94CD05C8010E94CA06C8010E949F
S11302D0D80085E20E94BF0683E00E9481062FEFCA
S11302E083E294EF215080409040E1F700C0000089
S11302F085E20E94C30683E00E94A006CF911F916D
S11303000F9108950E94E0058AE291E00E94CD05D4
S11303100895CF93C82F84E00E9481060E94E005CF
S11303208DE391E00E94CD0560E081E00E944306E8
S1130330C13081F028F0C23091F0CE3F31F01BC0C3
S113034086E491E00E94CD0516C087E591E00E9405
S1130350CD0511C087E691E00E94CD050CC084E76D
S113036091E00E94CD0560E082E00E94430689E8A6
S113037091E00E94CD0560E083E00E9443068AE993
S113038091E00E94CD05C1E003C00E945404C82F2F
S1130390C334D9F784E00E94A0068C2FCF9108952E
S11303A01F93CF93DF93EC01162F0E947909CE019E
S11303B088279370880F892F881F990B9195806ADD
S11303C00E9484098C2F0E94A109812F0E94A109F7
S11303D00E94B809DF91CF911F9108950F931F9345
S11303E0CF93DF938C010E947909E801CC27D37065
S11303F0CC0FCD2FCC1FDD0BD1958C2F806A0E94A2
S11304008409802F0E94A1090E948D098C2F816A82
S11304100E9498090E94B109C82F0E94B8098C2F24
S1130420DF91CF911F910F9108951F93CF93DF9385
S1130430182FC62FD72F8FEE0E94CE0981E00E947D
S1130440CE098FEF0E94CE098FEF0E94CE098FEF65
S11304500E94CE098FEF0E94CE09812F0E94CE09FF
S11304608D2F0E94CE098C2F0E94CE09DF91CF914F
S11304701F91089567E070E081E00E94150285E312
S11304800E94CE0982E00E94CE098FE00E94CE092C
S113049083E00E94CE0981E00E94CE0980E00E94A0
S11304A0CE0982E50E94CE09089563E070E081E000
S11304B00E94150281E00E94CE0980E00E94CE09CC
S11304C085E00E94CE0908958FEE0E94CE0981E056
S11304D00E94CE098FEF0E94CE098FEF0E94CE09B1
S11304E08FEF0E94CE098FEF0E94CE0981E00E9417
S11304F0CE0980E00E94CE0984E00E94CE0982E009
S11305000E94CE0981E00E94CE0980E00E94CE09BB
S113051088E00E94CE0908958FEE0E94CE0981E002
S11305200E94CE098FEF0E94CE098FEF0E94CE0960
S11305308FEF0E94CE098FEF0E94CE0981E00E94C6
S1130540CE0980E00E94CE0984E00E94CE0982E0B8
S11305500E94CE0982E00E94CE0980E00E94CE096A
S113056089E00E94CE0908958FEE0E94CE0981E0B1
S11305700E94CE098FEF0E94CE098FEF0E94CE0910
S11305808FEF0E94CE098FEF0E94CE0981E00E9476
S1130590CE0980E00E94CE0983E00E94CE0985E066
S11305A00E94CE0980E00E94CE0989E00E94CE0913
S11305B00895CF93DF93EC0166E070E081E00E9440
S11305C0150286E00E94CE0981E00E94CE098D2F9B
S11305D00E94CE098C2F0E94CE09CE010E96892F3F
S11305E00E94CE098C2F825F0E94CE09DF91CF91A9
S11305F00895CF93DF93C82FD92F8FEE0E94CE0991
S113060081E00E94CE098FEF0E94CE098FEF0E94F5
S1130610CE098FEF0E94CE098FEF0E94CE0981E0B0
S11306200E94CE0980E00E94CE0986E00E94CE0995
S113063087E00E94CE0982E00E94CE098D2F0E949D
S1130640CE098C2F0E94CE0980E00E94CE0984E15D
S11306500E94CE09DF91CF9108958FEE0E94CE09BA
S113066081E00E94CE098FEF0E94CE098FEF0E9495
S1130670CE098FEF0E94CE098FEF0E94CE0981E050
S11306800E94CE0980E00E94CE0983E00E94CE0938
S113069083E00E94CE0980E00E94CE0987E00E9498
S11306A0CE0908959091A801E92FF0E0E755FE4F97
S11306B080839B3019F41092A80108959F5F909352
S11306C0A80108958091B4018A3021F41092B401F4
S11306D081E0089580E00895CF93DF93EC010E94B8
S11306E055022FEF81EE94E0215080409040E1F7D5
S11306F000C000000E946203882389F30E94640200
S11307002FEF81EE94E0215080409040E1F700C04B
S113071000000E946203882389F30E9455022FEF90
S113072081EE94E0215080409040E1F700C0000049
S11307300E946203882389F30E948C022FEF81EECA
S113074094E0215080409040E1F700C000000E94F6
S11307506203882389F30E94B4022FEF89E698E1AB
S1130760215080409040E1F700C000000E946203E5
S1130770882309F4B4CFCE010E94D9022FEF81EE71
S113078094E0215080409040E1F700C000000E94B6
S11307906203882381F3DF91CF910895CF93DF9390
S11307A0EC010E9455022FEF81EE94E0215080402D
S11307B09040E1F700C000000E946203882389F39F
S11307C08AE20E94E2040E9464022FEF81EE94E028
S11307D0215080409040E1F700C000000E94620375
S11307E0882389F38AE20E94E204CE010E94F9027E
S11307F02FEF81EE94E0215080409040E1F700C05B
S113080000000E946203882381F38AE20E94E204CA
S11308100E942D032FEF81EE94E021508040904000
S1130820E1F700C000008091B201811105C08DE4A0
S11308300E94E20481E004C08EE40E94E20480E0AD
S1130840DF91CF91089561E083E20E94060861E0A0
S113085082E20E94060861E081E20E94060861E0EB
S113086080E20E94060861E083E20E948F0861E052
S113087082E20E948F0861E081E20E948F0861E0B9
S113088080E20E948F0860E08FE20E94060860E028
S11308908EE20E94060860E08DE20E94060860E095
S11308A08BE20E94060808959F92AF92BF92CF9266
S11308B0DF92EF92FF920F931F93CF93DF93CDB705
S11308C0DEB768970FB6F894DEBF0FBECDBF83E2E4
S11308D0898382E28A8381E28B8380E28C838FE244
S11308E08D838EE28E838DE28F838BE2888780E115
S11308F0ECE7F0E0DE01199601900D928A95E1F79C
S1130900D12C9924939447C0AD2CB12CE1E0F0E0B4
S1130910EC0FFD1FEA0DFB1DC08060E08C2D0E94D2
S11309208F0810E031C0E12EF12CE5E0F0E0EC0F8F
S1130930FD1FEE0DFF1D0081802F0E9418098111FB
S113094022C02FEF83EF91E0215080409040E1F7E7
S113095000C00000802F0E941809811114C0802F4C
S11309600E9418098823D9F3F501EE0FFF1FEE0F3B
S1130970FF1F81E090E08C0F9D1FE80FF91FEE0D23
S1130980FF1D908403C01F5F143068F261E08C2D5A
S11309900E948F08D39493E09D1508F0B5CF892D5C
S11309A068960FB6F894DEBF0FBECDBFDF91CF912E
S11309B01F910F91FF90EF90DF90CF90BF90AF9079
S11309C09F900895CF93C82F61E08DE00E948F0817
S11309D0C4FB662760F984E10E948F08C5FB662783
S11309E060F985E10E948F08C6FB662760F986E1FD
S11309F00E948F086C2F661F6627661F88E10E947D
S1130A008F0861E08CE00E948F088FE99FE00197D6
S1130A10F1F700C0000060E08CE00E948F088FE9CD
S1130A209FE00197F1F700C000006C2F617084E132
S1130A300E948F08C1FB662760F985E10E948F0838
S1130A40C2FB662760F986E10E948F08C3FB662714
S1130A5060F988E10E948F0861E08CE00E948F08B1
S1130A608FE99FE00197F1F700C0000060E08CE09F
S1130A700E948F088FE19EE40197F1F700C0000007
S1130A80CF910895CF93C82F60E08DE00E948F0826
S1130A90C4FB662760F984E10E948F08C5FB6627C2
S1130AA060F985E10E948F08C6FB662760F986E13C
S1130AB00E948F086C2F661F6627661F88E10E94BC
S1130AC08F0861E08CE00E948F088FE99FE0019716
S1130AD0F1F700C0000060E08CE00E948F088FE90D
S1130AE09FE00197F1F700C000006C2F617084E172
S1130AF00E948F08C1FB662760F985E10E948F0878
S1130B00C2FB662760F986E10E948F08C3FB662753
S1130B1060F988E10E948F0861E08CE00E948F08F0
S1130B208FE99FE00197F1F700C0000060E08CE0DE
S1130B300E948F088FE19EE40197F1F700C0000046
S1130B40CF91089561E084E10E94060861E085E1A7
S1130B500E94060861E086E10E94060861E088E1DF
S1130B600E94060861E08DE00E94060861E08CE0C6
S1130B700E94060883E30E94420582E30E94420524
S1130B8088E20E9442058CE00E94420582E00E94B5
S1130B90420581E00E94420508950F931F93CF936D
S1130BA08C01C0E003C00E94E204CF5FF801EC0FA7
S1130BB0F11D80818111F7CFCF911F910F9108957D
S1130BC081E00E9442050895CF92DF92EF92FF9256
S1130BD01F93CF93DF93CDB7DEB72A970FB6F89460
S1130BE0DEBF0FBECDBF6B017C01FE0131968AE0F2
S1130BF0DF011D928A95E9F7FF205CF4F094E094FC
S1130C00D094C094C11CD11CE11CF11C8DE20E9443
S1130C10E20410E0C701B6012AE030E040E050E011
S1130C200E94230AE1E0F0E0EC0FFD1FE10FF11D4B
S1130C3017FDFA956083C22ED32EE42EF52E1F5F86
S1130C40C114D104E104F10429F70DC01150E1E00D
S1130C50F0E0EC0FFD1FE10FF11D17FDFA95808107
S1130C60805D0E94E20411168CF32A960FB6F89464
S1130C70DEBF0FBECDBFDF91CF911F91FF90EF90EC
S1130C80DF90CF900895CF93DF9300D000D0CDB7FD
S1130C90DEB790E8998390EC9A8394E99B8394ED72
S1130CA09C83E1E0F0E0EC0FFD1FE80FF11D808173
S1130CB0860F0E9442050F900F900F900F90DF91C6
S1130CC0CF910895823071F018F4813031F0089595
S1130CD0833069F0843081F0089561E080E10E94FE
S1130CE00608089561E08FE00E940608089561E017
S1130CF08EE00E940608089561E08BE10E940608D8
S1130D000895823071F018F4813031F00895833001
S1130D1069F0843081F0089561E080E10E948F08D9
S1130D20089561E08FE00E948F08089561E08EE0ED
S1130D300E948F08089561E08BE10E948F08089556
S1130D40823071F018F4813031F00895833069F005
S1130D50843081F0089560E080E10E948F08089556
S1130D6060E08FE00E948F08089560E08EE00E94AA
S1130D708F08089560E08BE10E948F08089561E078
S1130D800E948F08089560E00E948F0808950E94D1
S1130D905C090895CF93DF93EC010E94790980EDFB
S1130DA00E94840980E00E94A1090E948D0981EDBE
S1130DB00E9498090E94AA09982F92959F708F709B
S1130DC0990F292F220F220F920F890F88830E94D7
S1130DD0AA09982F92959F708F70990F292F220F2F
S1130DE0220F920F890F89830E94B109982F92953F
S1130DF09F708F70990F292F220F220F920F890F46
S1130E008A830E94B809DF91CF910895CF93DF932D
S1130E10CDB7DEB727970FB6F894DEBF0FBECDBFB0
S1130E2087E0ECE8F0E0DE01119601900D928A95DE
S1130E30E1F70E945C090E94BE0982E593E00E94EA
S1130E40D409789484E00E94620683E00E946206DA
S1130E500E9423040E94A2050E94C7068091B60145
S1130E60811102C00E9449008091B601813009F4C9
S1130E7086C0873099F70E947700182F8F3F19F4A6
S1130E801092B601EBCF0E94AE008093B601893078
S1130E9009F060C00E9482010E943A022FEF8BE7A2
S1130EA092E9215080409040E1F700C00000E12E1B
S1130EB0F12CC7010E94CE038093B501813049F41F
S1130EC0BE016F5F7F4F812F0E9438011092B601DF
S1130ED0C5CF8823A9F13BC01F5F84E00E9481062F
S1130EE00E94E0058DE391E00E94CD0560E081E081
S1130EF00E94430684E791E00E94CD0560E082E011
S1130F000E94430689E891E00E94CD052FEF83ED0E
S1130F1090E3215080409040E1F700C000000E941F
S1130F203A022FEF87EA91E6215080409040E1F7A2
S1130F3000C00000C7010E94CE038093B50101C028
S1130F4010E08091B501811102C0133028F2109293
S1130F50B60184CF883009F081CF81E00E948901F5
S1130F60833419F41092B60179CF81E00E9489018B
S1130F70813409F073CF87E08093B6016FCF0E946C
S1130F807700182F8F3F19F41092B60167CF0E9493
S1130F90AE008093B601883021F51E3F49F48EEFF0
S1130FA00E948901833409F059CF1092B60156CFBB
S1130FB00E9482012FEF8FE493EC215080409040F7
S1130FC0E1F700C000000E943A02812F90E00E94E5
S1130FD06C03812F0E94BA000E94C2001092B601D5
S1130FE03DCF893009F03ACF80E00E9489018334F3
S1130FF019F41092B60132CF80E00E948901813445
S113100009F02CCF81E08093B60128CF9DEC899F15
S1131010912D1124292F269526952695220F322FBE
S1131020330F330F230F821B282F96959695969591
S1131030662319F06130E1F108959230A9F018F4B3
S1131040913031F008959330D9F0943029F1089516
S11310503AB381E090E002C0880F991F2A95E2F725
S1131060809583238ABB089537B381E090E002C062
S1131070880F991F2A95E2F78095832387BB0895EB
S113108034B381E090E002C0880F991F2A95E2F7FB
S11310908095832384BB089531B381E090E002C03E
S11310A0880F991F2A95E2F78095832381BB0895C1
S11310B09230A1F018F4913031F008959330C9F0D2
S11310C0943011F108953AB381E090E002C0880FA2
S11310D0991F2A95E2F7832B8ABB089537B381E0E1
S11310E090E002C0880F991F2A95E2F7832B87BBF3
S11310F0089534B381E090E002C0880F991F2A95C7
S1131100E2F7832B84BB089531B381E090E002C001
S1131110880F991F2A95E2F7832B81BB08959DECD4
S1131120899F912D1124292F269526952695220FE6
S1131130322F330F330F230F821B282F969596954A
S11311409695662319F06130E1F108959230A9F083
S113115018F4913031F008959330D9F0943029F196
S113116008953BB381E090E002C0880F991F2A954F
S1131170E2F7809583238BBB089538B381E090E038
S113118002C0880F991F2A95E2F78095832388BBB4
S1131190089535B381E090E002C0880F991F2A9525
S11311A0E2F78095832385BB089532B381E090E014
S11311B002C0880F991F2A95E2F78095832382BB8A
S11311C008959230A1F018F4913031F008959330DD
S11311D0C9F0943011F108953BB381E090E002C06E
S11311E0880F991F2A95E2F7832B8BBB089538B398
S11311F081E090E002C0880F991F2A95E2F7832BC3
S113120088BB089535B381E090E002C0880F991F30
S11312102A95E2F7832B85BB089532B381E090E0F1
S113122002C0880F991F2A95E2F7832B82BB089589
S11312309DEC899F912D1124292F2695269526957D
S1131240220F322F330F330F230F821B282F892FA6
S1131250869586958695823091F018F4813031F028
S113126029C08330A9F08430E1F024C089B390E030
S113127002C0959587952A95E2F78170089586B303
S113128090E002C0959587952A95E2F781700895BC
S113129083B390E002C0959587952A95E2F7817013
S11312A0089580B390E002C0959587952A95E2F75A
S11312B08170089580E0089581B18E7F81B981B1F4
S11312C08D7F81B981B190E0880F991F22E030E0D1
S11312D002C0220F331F8A95E2F7032E000C440B41
S11312E0550B60E470E080E090E00E94010A20B9B0
S11312F0089584EA86BF06B607FEFDCF81B1887FD4
S1131300883009F080E0089583B984E886BF06B682
S113131007FEFDCF81B1887F089584EA86BF06B6B3
S113132007FEFDCF81B1887F803109F080E0089508
S113133083B984E886BF06B607FEFDCF81B1887FF6
S1131340089583B984E886BF06B607FEFDCF81B150
S1131350887F089584EC86BF06B607FEFDCF83B16F
S1131360089584E886BF06B607FEFDCF83B10895CD
S113137084E986BF06B604FCFDCF089580B58F7757
S113138080BD10BC80E189B980B580BD88E98AB987
S113139080B5806880BD86E880BD08955D9BFECFE2
S11313A08CB95E9BFECF08959093B8018093B701EA
S11313B008951F920F920FB60F9211242F933F930B
S11313C04F935F936F937F938F939F93AF93BF9349
S11313D0EF93FF938CB1E091B701F091B8010995B7
S11313E0FF91EF91BF91AF919F918F917F916F91F9
S11313F05F914F913F912F910F900FBE0F901F90CF
S11314001895A1E21A2EAA1BBB1BFD010DC0AA1F31
S1131410BB1FEE1FFF1FA217B307E407F50720F059
S1131420A21BB30BE40BF50B661F771F881F991FD4
S11314301A9469F760957095809590959B01AC011D
S1131440BD01CF010895052E97FB1EF400940E9460
S11314503A0A57FD07D00E94010A07FC03D04EF454
S11314600C943A0A50954095309521953F4F4F4F33
S11314705F4F089590958095709561957F4F8F4F3C
S10B14809F4F0895F894FFCF7B
S11314885341540053554E004D4F4E00545545009A
S113149857454E00544855004652490031323341AD
S11314A834353642373839432A3023442315020663
S11314B81C0318506C656173652050726573730062
S11314C8282A29203A20417474656E64616E636524
S11314D800282329203A204E657720456D706C6FCB
S11314E879656500506C6561736520456E74657235
S11314F820596F757220494400454E524F4C4C4D4B
S1131508454E54205355434345535300204C4154AE
S113151845002077656C636F6D65004869205461E8
S113152872656B00486920596F7573736566004866
S113153869205365696600417474656E64616E63FD
S113154865207375636365737300507574206669E9
S11315586E67657220746F207363616E00576172E1
S11315686E696E673A00414C5245414459205441D2
S11315784B454E204944004F5554204F4620524174
S11315884E4745204944004944204E4F5420464F75
S1131598554E440046494E4745525052494E5420F0
S11315A84E4F54464F554E4400504C4541534520E8
S11315B854525920414741494E0043203A204D6135
S10B15C8696E204D656E75008B
S9030000FC
